{
  "transactions": [
    {
      "hash": "0x99413caa9067c726e32b2256360676c62779c8f80c50d270ce7d4c6ea757fd29",
      "transactionType": "CALL",
      "contractName": null,
      "contractAddress": "0x779877a7b0d9e8603169ddbd7836e478b4624789",
      "function": "transferAndCall(address,uint256,bytes)",
      "arguments": [
        "0x9DdfaCa8183c41ad55329BdeeD9F6A8d53168B1B",
        "1000000000000000000",
        "0xc17e165385c69320011c0a9475ad5edd82abf5380a4d3d88081f93d65440a94c"
      ],
      "transaction": {
        "from": "0x8943f7348e2559c6e69eecb0da932424c3e6dc66",
        "to": "0x779877a7b0d9e8603169ddbd7836e478b4624789",
        "gas": "0x14cbb",
        "value": "0x0",
        "input": "0x4000aea00000000000000000000000009ddfaca8183c41ad55329bdeed9f6a8d53168b1b0000000000000000000000000000000000000000000000000de0b6b3a764000000000000000000000000000000000000000000000000000000000000000000600000000000000000000000000000000000000000000000000000000000000020c17e165385c69320011c0a9475ad5edd82abf5380a4d3d88081f93d65440a94c",
        "nonce": "0x9",
        "chainId": "0xaa36a7"
      },
      "additionalContracts": [],
      "isFixedGasLimit": false
    }
  ],
  "receipts": [
    {
      "status": "0x1",
      "cumulativeGasUsed": "0x10c1d91",
      "logs": [
        {
          "address": "0x779877a7b0d9e8603169ddbd7836e478b4624789",
          "topics": [
            "0xddf252ad1be2c89b69c2b068fc378daa952ba7f163c4a11628f55a4df523b3ef",
            "0x0000000000000000000000008943f7348e2559c6e69eecb0da932424c3e6dc66",
            "0x0000000000000000000000009ddfaca8183c41ad55329bdeed9f6a8d53168b1b"
          ],
          "data": "0x0000000000000000000000000000000000000000000000000de0b6b3a7640000",
          "blockHash": "0xb5be9c5508defb6b8bac15807c1e715212f6d7fc5a7d51e0b8d529562072be83",
          "blockNumber": "0x7d20c0",
          "transactionHash": "0x99413caa9067c726e32b2256360676c62779c8f80c50d270ce7d4c6ea757fd29",
          "transactionIndex": "0x85",
          "logIndex": "0x132",
          "removed": false
        },
        {
          "address": "0x779877a7b0d9e8603169ddbd7836e478b4624789",
          "topics": [
            "0xe19260aff97b920c7df27010903aeb9c8d2be5d310a2c67824cf3f15396e4c16",
            "0x0000000000000000000000008943f7348e2559c6e69eecb0da932424c3e6dc66",
            "0x0000000000000000000000009ddfaca8183c41ad55329bdeed9f6a8d53168b1b"
          ],
          "data": "0x0000000000000000000000000000000000000000000000000de0b6b3a764000000000000000000000000000000000000000000000000000000000000000000400000000000000000000000000000000000000000000000000000000000000020c17e165385c69320011c0a9475ad5edd82abf5380a4d3d88081f93d65440a94c",
          "blockHash": "0xb5be9c5508defb6b8bac15807c1e715212f6d7fc5a7d51e0b8d529562072be83",
          "blockNumber": "0x7d20c0",
          "transactionHash": "0x99413caa9067c726e32b2256360676c62779c8f80c50d270ce7d4c6ea757fd29",
          "transactionIndex": "0x85",
          "logIndex": "0x133",
          "removed": false
        },
        {
          "address": "0x9ddfaca8183c41ad55329bdeed9f6a8d53168b1b",
          "topics": [
            "0x1ced9348ff549fceab2ac57cd3a9de38edaaab274b725ee82c23e8fc8c4eec7a",
            "0xc17e165385c69320011c0a9475ad5edd82abf5380a4d3d88081f93d65440a94c"
          ],
          "data": "0x0000000000000000000000000000000000000000000000004563918244f4000000000000000000000000000000000000000000000000000053444835ec580000",
          "blockHash": "0xb5be9c5508defb6b8bac15807c1e715212f6d7fc5a7d51e0b8d529562072be83",
          "blockNumber": "0x7d20c0",
          "transactionHash": "0x99413caa9067c726e32b2256360676c62779c8f80c50d270ce7d4c6ea757fd29",
          "transactionIndex": "0x85",
          "logIndex": "0x134",
          "removed": false
        }
      ],
      "logsBloom": "0x00000004000000000000000000000000000000000020000000000000020000000000000000000000000000000000000000001000000000000000000000000000000000000000000000000008000000000000000000000000000020000020000008000000000000000000000000000000000000000000000000000010000040000000080000000000000000010000800000000020000000000000000000200000001000000000000000000000010000000000000000000000000004000000000000000002000000000000000000000000000000008000000100000000000000000010000000000000800000000000000000000000000000000000000000000000",
      "type": "0x2",
      "transactionHash": "0x99413caa9067c726e32b2256360676c62779c8f80c50d270ce7d4c6ea757fd29",
      "transactionIndex": "0x85",
      "blockHash": "0xb5be9c5508defb6b8bac15807c1e715212f6d7fc5a7d51e0b8d529562072be83",
      "blockNumber": "0x7d20c0",
      "gasUsed": "0xf0e5",
      "effectiveGasPrice": "0x79e0b6377",
      "from": "0x8943f7348e2559c6e69eecb0da932424c3e6dc66",
      "to": "0x779877a7b0d9e8603169ddbd7836e478b4624789",
      "contractAddress": null
    }
  ],
  "libraries": [],
  "pending": [],
  "returns": {},
  "timestamp": 1745683418,
  "chain": 11155111,
  "commit": "4390bd3"
}